:10000000E8C0000003C1000001C10000FFC0000003
:10001000FDC00000FBC00000F9C00000F7C00000F8
:10002000F5C00000F3C000007CC50000F4C3000070
:10003000EDC00000EBC00000E9C00000E7C0000018
:10004000E5C00000E3C00000E1C00000DFC0000028
:10005000DDC00000DBC00000D9C0000030C60000D9
:10006000D5C00000D3C00000D1C00000CFC0000048
:10007000CDC00000CBC00000C9C00000C7C0000058
:10008000C5C00000C3C00000C1C00000BFC0000068
:10009000BDC00000BBC0000000010000CC00120089
:1000A000020000DE004300030000210104010309F7
:1000B00004250118020309043F011603030904572C
:1000C000010C0001C10201803601813612010002DB
:1000D00002000020C016830400010102030109028E
:1000E0004300020100C032090400000102020100C5
:1000F0000524001001052401000104240206052442
:100100000600010705820308004009040100020AF5
:1001100000000007050302400000070584024000BC
:10012000000403090418035400650065006E0073A1
:100130000079006400750069006E006F0000001611
:10014000035500530042002000530065007200690F
:100150000061006C0000000C0331003200330034F9
:10016000003500000001290229042908291029204E
:100170002940298029012C022C0126022604260868
:10018000261026202640268026402C802C01230283
:10019000230423082310232023402380230120024B
:1001A00020042008201020202040208020102C2017
:1001B0002C012F022F042F082F102F202F402F80CB
:1001C0002F7EFE7EFD7EFB7EF77EEF7EDF7EBF7E96
:1001D0007F0011241FBECFEFD0E2DEBFCDBF11E004
:1001E000A0E0B1E0E6E9FDE000E00BBF02C007904F
:1001F0000D92A830B107D9F711E0A8E0B1E001C035
:100200001D92A431B107E1F7C0D5C3C5F9CE982F2F
:1002100080911401882309F4CFC283E08093E90020
:100220002BE68091E80085FD06C082FFC5C28BE603
:100230008093E80008958091F1008BB900000000E0
:10024000000095B98091F100000065B90000000040
:100250008BB900000000000095B98091F10000000A
:1002600065B9000000008BB900000000000095B9DE
:100270008091F100000065B9000000008BB900001A
:100280000000000095B98091F100000065B9000000
:1002900000008BB900000000000095B98091F100CA
:1002A000000065B9000000008BB9000000000000EC
:1002B00095B98091F100000065B9000000008BB98C
:1002C00000000000000095B98091F100000065B9C0
:1002D000000000008BB900000000000095B980917B
:1002E000F100000065B9000000008BB900000000BB
:1002F000000095B98091F100000065B90000000090
:100300008BB900000000000095B98091F100000059
:1003100065B9000000008BB900000000000095B92D
:100320008091F100000065B9000000008BB9000069
:100330000000000095B98091F100000065B900004F
:1003400000008BB900000000000095B98091F10019
:10035000000065B9000000008BB90000000000003B
:1003600095B98091F100000065B9000000008BB9DB
:1003700000000000000095B98091F100000065B90F
:10038000000000008BB900000000000095B98091CA
:10039000F100000065B9000000008BB9000000000A
:1003A000000095B98091F100000065B900000000DF
:1003B0008BB900000000000095B98091F1000000A9
:1003C00065B9000000008BB900000000000095B97D
:1003D0008091F100000065B9000000008BB90000B9
:1003E0000000000095B98091F100000065B900009F
:1003F00000008BB900000000000095B98091F10069
:10040000000065B9000000008BB90000000000008A
:1004100095B98091F100000065B9000000008BB92A
:1004200000000000000095B98091F100000065B95E
:10043000000000008BB900000000000095B9809119
:10044000F100000065B9000000008BB90000000059
:10045000000095B98091F100000065B9000000002E
:100460008BB900000000000095B98091F1000000F8
:1004700065B9000000008BB900000000000095B9CC
:100480008091F100000065B9000000008BB9000008
:100490000000000095B98091F100000065B90000EE
:1004A00000008BB900000000000095B98091F100B8
:1004B000000065B9000000008BB9000000000000DA
:1004C00095B98091F100000065B9000000008BB97A
:1004D00000000000000095B98091F100000065B9AE
:1004E000000000008BB900000000000095B9809169
:1004F000F100000065B9000000008BB900000000A9
:10050000000095B98091F100000065B9000000007D
:100510008BB900000000000095B98091F100000047
:1005200065B9000000008BB900000000000095B91B
:100530008091F100000065B9000000008BB9000057
:100540000000000095B98091F100000065B900003D
:1005500000008BB900000000000095B98091F10007
:10056000000065B9000000008BB900000000000029
:1005700095B98091F100000065B9000000008BB9C9
:1005800000000000000095B98091F100000065B9FD
:10059000000000008BB900000000000095B98091B8
:1005A000F100000065B9000000008BB900000000F8
:1005B000000095B98091F100000065B900000000CD
:1005C0008BB900000000000095B98091F100000097
:1005D00065B9000000008BB900000000000095B96B
:1005E0008091F100000065B9000000008BB90000A7
:1005F0000000000095B98091F100000065B900008D
:1006000000008BB900000000000095B98091F10056
:10061000000065B9000000008BB900000000000078
:1006200095B98091F100000065B9000000008BB918
:1006300000000000000095B98091F100000065B94C
:10064000000000008BB900000000000095B9809107
:10065000F100000065B9000000008BB90000000047
:10066000000095B98091F100000065B9000000001C
:100670008BB900000000000095B98091F1000000E6
:1006800065B9000000008BB900000000000095B9BA
:100690008091F100000065B9000000008BB90000F6
:1006A0000000000095B98091F100000065B90000DC
:1006B00000008BB900000000000095B98091F100A6
:1006C000000065B9000000008BB9000000000000C8
:1006D00095B98091F100000065B9000000008BB968
:1006E00000000000000095B98091F100000065B99C
:1006F000000000008BB900000000000095B9809157
:10070000F100000065B9000000008BB90000000096
:10071000000095B98091F100000065B9000000006B
:100720008BB900000000000095B98091F100000035
:1007300065B9000000008BB900000000000095B909
:100740008091F100000065B9000000008BB9000045
:100750000000000095B98091F100000065B900002B
:1007600000008BB900000000000095B98091F100F5
:10077000000065B9000000008BB900000000000017
:1007800095B98091F100000065B9000000008BB9B7
:1007900000000000000095B98091F100000065B9EB
:1007A000000000008BB900000000000095B9209304
:1007B000E800000065B935CD08958FEF60E027CDE2
:1007C0001F9310E0812F2BD21F5F1C31D9F71F918F
:1007D00008958091D80087FF02C085FF1BC081E883
:1007E0008093D70080EA8093D80086E189BD09B460
:1007F00000FEFDCF80E98093D8001092E0001092B7
:1008000014011092150110920A011092E1008DE07E
:100810008093E20008951F920F920FB60F920BB6CD
:100820000F9211242F933F934F935F936F937F9376
:100830008F939F93AF93BF93EF93FF931092E90031
:100840008091E80083FF57C12091F1009091F10061
:100850004091F1005091F1006091F1007091F10030
:10086000A091F100B091F10082EF8093E800963002
:1008700009F044C0E8E9F0E020E085919591841703
:10088000950711F0359617C08591959186179707B2
:1008900011F0339610C0259135914491CD01AF3FB1
:1008A000B10519F010F08FEF90E0841708F4482F8D
:1008B000F9015EEF04C02F5F2630F9F61CC180916C
:1008C000E800282F30E0C90185709070892BB9F3BA
:1008D00022FD14C1242F413208F020E2922F04C0DF
:1008E00085918093F10091509923D1F7421B509349
:1008F000E800442321F7203211F300C1953061F460
:100900008EEF8093E8008091E80080FFFCCF842F79
:1009100080688093E300F2C0993009F5222309F042
:10092000EAC04093140110920A01109208018EEF60
:100930008093E800E2ECF0E091E09093E90085918B
:100940008093EB00882331F085918093EC008591B2
:100950008093ED009F5F953081F78EE1C7C098309E
:1009600061F4203809F0C7C08091E80080FFFCCF17
:10097000809114018093F10096C09132A9F4213A3C
:1009800009F0B9C08091E80080FFFCCF20E030E0A2
:10099000F901E050FF4F80818093F1002F5F3F4FBE
:1009A00027303105A9F77FC0903209F04BC02132C2
:1009B00009F0A1C08091E80082FFFCCF20E030E088
:1009C000F901E050FF4F8091F10080832F5F3F4F8E
:1009D00027303105A9F78BEF8093E8008EEF8093E5
:1009E000E8008091000190910101A0910201B09175
:1009F000030186389105A105B10519F48FE08093B4
:100A000009018091000190910101A0910201B09132
:100A1000030186399105A105B10509F06FC084E095
:100A20008093E9002FEF06C02093E8008091E80052
:100A300082FDFCCF8091EE0090E083709070892B56
:100A400099F734D1923251F4213209F054C04093D5
:100A50000A018091E80080FFFCCF25C0933241F469
:100A6000213209F048C08091E80080FFFCCF1BC014
:100A70009923E9F48091E80080FFFCCF223811F03F
:100A800080E00DC06093E9008091EB0090E025E0EC
:100A9000969587952A95E1F781701092E9008093E9
:100AA000F1001092F1008EEF8093E80027C09130A2
:100AB00011F0933001F52230F1F4452BE1F4262FAB
:100AC0002F77822F81508430B0F48EEF8093E8002E
:100AD0002093E900933079F089E18093EB0081E085
:100AE00090E002C0880F991F2A95E2F78093EA00F0
:100AF0001092EA0003C081E28093EB00FF91EF9136
:100B0000BF91AF919F918F917F916F915F914F9125
:100B10003F912F910F900BBE0F900FBE0F901F9023
:100B200018951F920F920FB60F920BB60F921124C9
:100B30002F933F934F935F936F937F938F939F93E5
:100B4000AF93BF93EF93FF938091E1001092E10088
:100B5000982F83FF11C01092E90081E08093EB0091
:100B60001092EC0082E28093ED0088E08093F00028
:100B70001092140110920A0192FF1DC0809114017D
:100B80008823C9F080910801882359F0815080930F
:100B90000801882331F484E08093E9008AE380939C
:100BA000E80080910901882331F081508093090188
:100BB000882309F466D090FF0CC080E18093E200A6
:100BC0001092140181E08093150180EA8093D8008F
:100BD00019BC80911501882379F094FF0DC086E13E
:100BE00089BD09B400FEFDCF80E98093D8008DE077
:100BF0008093E20010921501FF91EF91BF91AF91A8
:100C00009F918F917F916F915F914F913F912F9124
:100C10000F900BBE0F900FBE0F901F9018958E3245
:100C200070F4E5E6F1E0880FE80FF11D9591E4918D
:100C3000F0E02FB7F8948181892B81832FBF08952D
:100C40001DBA109268001CBC10BE1FBA10927A0028
:100C500010926E0010926F0010927000109271004E
:100C60001092C9001092BC0011B814B817B81AB885
:100C70001DB810BA12B815B818B81BB81EB811BAFA
:100C80000895F89480E29EE40197F1F781E0809363
:100C9000E00080E28093D8001092C90080E69AEECE
:100CA0000197F1F7CDDF0C9400FEFFCFF894C8DF79
:100CB00080E69AEE0197F1F70C940000FFCF8F9336
:100CC0008FB78F93809113018D5F8D37D0F4809310
:100CD000130180910F018F5F80930F01D8F08091F5
:100CE00010018F4F80931001A8F0809111018F4F58
:100CF0008093110178F0809112018F4F809312013F
:100D000009C08A578093130180910F018E5F8093F1
:100D10000F0128F780910B018C5F80930B0158F035
:100D200080910C018F4F80930C0128F080910D0170
:100D30008F4F80930D018F918FBF8F911895F894ED
:100D4000E1E6F0E020E82083108283E084BD85BDE9
:100D5000EEE6F0E080818160808391E090938000F6
:100D600082E0809381009093B0008093B1009093D3
:100D700090008093910086E880937A0020937B0016
:100D800010927E0026DD78940895D9DF19DD15DDF7
:060D9000FECFF894FFCF36
:080D960000E10000000008006C
:00000001FF
